:100000001CC0000000000000000000000000000014
:1000100000000000000000000000000000000000E0
:1000200000000000000000000C9451000C943E0001
:10003000000000000C941C00189508E00EBF0FEFA4
:100040000DBF00E00093C1000C9426008EEF8AB92A
:100050008BB9289A61E070E000270093800002E2EB
:1000600000936F0008E10093890000270093880047
:100070000DE80093810033277894FFCF0F930FB7DB
:100080000F930091810006FF02C03FEF06C00E945F
:1000900084000E94820061E070E00F910FBF0F9119
:1000A00018958F928FB68F928090860080908700EF
:1000B0001F93132F1829A9F011271093850010936F
:1000C00084001091810016FF03C010D01F7B07C071
:1000D000660F73952D9A8EEF0E9482001064109324
:1000E00081001F918F908FBE8F9018950F932D9840
:1000F000332319F40CE0801610F0639500C00F91C3
:10010000332708958BB90895763008F093C0613095
:1001100009F491C0653011F489E08DC0683111F4A3
:1001200083E889C06A3111F487E485C06C3011F42A
:1001300081EA81C0623011F487E07DC0623111F440
:100140008FE079C06E3011F483E475C0603111F432
:100150008BE871C0643011F48FEC6DC0673111F41D
:1001600081EE69C06D3011F48BE065C0643111F42B
:1001700087EC61C0673011F48BE65DC0663011F426
:1001800089E459C06F3011F481E455C0663111F42F
:100190008DE051C06D3111F489E14DC06A3011F428
:1001A0008DE449C0683011F483E145C0633011F437
:1001B00087E841C0693011F481EC3DC0613111F430
:1001C00081ED39C06B3011F485ED35C0693111F422
:1001D00089E831C06B3111F481E92DC06C3111F423
:1001E00085E329C06F3211F489EF25C0673211F41D
:1001F00085E221C0633211F481E31DC0613211F444
:1002000089E919C0603211F483E115C0603311F43B
:1002100083E011C0683311F489E70DC06C3311F429
:1002200081E009C06E3311F481E105C06F3311F430
:0802300081E401C087E3089599
:00000001FF
